:100000000C94ED000C941E0B0C94F70A0C94D00A7F
:100010000C94A90A0C9415010C9415010C94820AF5
:100020000C9415010C943E0E0C94450B0C94B40BDF
:100030000C9415010C9415010C9415010C941501E8
:100040000C9415010C9415010C9415010C941501D8
:100050000C9415010C9415010C9415010C94380A9C
:100060000C9415010C940C0E0C94E60D0C941501D7
:100070000C9415010C9415010C9415010C941501A8
:100080000C9415010C9415010C9415010C94150198
:100090000C94BA0E0C9415010C9415010C941501D6
:1000A0000C9415010C9415010C94150105A84CCD68
:1000B000B2D44EB93836A9020C50B9918688083CA2
:1000C000A6AAAA2ABE000000803F0000000024006B
:1000D00027002A002D003000000000002300260029
:1000E00029002C002F00080B000202020000090466
:1000F0000000010202000005240010010524010196
:1001000001042402060524060001070581031000EE
:100110004009040100020A00000007050202400035
:1001200000070583024000000403090412010002D5
:10013000EF020140FB1F0023000101020301506F89
:100140006C6F6C7520436F72706F726174696F6E43
:1001500000506F6C6F6C7520412D537461722033A9
:100160003255340057656C636F6D652E00000000DA
:1001700000250028002B002E003100040404040494
:10018000030405020202020403020202020606063A
:1001900006060604040202020404040802011040D8
:1001A00080401020408040800802040180402010E0
:1001B0000201108010204040200000000200090FC2
:1001C0000000030401000C0000000000000000001B
:1001D0000000000000000000D90F11241FBECFEF67
:1001E000DAE0DEBFCDBF11E0A0E0B1E0E4EBF2E386
:1001F00002C005900D92AA39B107D9F723E0AAE908
:10020000B1E001C01D92AA3CB207E1F710E0CDEECB
:10021000D0E004C02197FE010E947516CC3ED107A4
:10022000C9F70E9465100C9458190C940000FC0149
:1002300080912C02882311F13FB7F89482E08093DB
:10024000E9002091F200822F90E01816190614F4AC
:1002500081E090E0882339F0289844E640932B020F
:100260004091F1004083222339F02091F2002111C6
:1002700003C02BE62093E8003FBF08958FEF9FEF68
:1002800008952FB7F89483E08093E9009091E800F7
:10029000892F807295FF04C09091F20080E4891B41
:1002A0002FBF08958091230281110DC082E08093B9
:1002B0001F0284E0809320021092220210922102F9
:1002C00081E0809323028FE192E0089581508F3086
:1002D00008F047C0E82FF0E0E059FE4F0C94751687
:1002E0008D0191017F0185018901B101B101B10148
:1002F00094019A019E01A201A801B101AC01809173
:1003000080008F77809380000895809180008F7D9A
:10031000F9CF80918000877FF5CF84B58F7784BD3A
:10032000089584B58F7DFBCF809190008F77809367
:1003300090000895809190008F7DF9CF809190007A
:10034000877FF5CF8091C0008F778093C00008959C
:100350008091C0008F7DF9CF8091C200877F80930C
:10036000C20008951F93CF93DF93282F30E0F90147
:10037000E754FE4F8491F901E656FE4FD491F901FE
:10038000E558FE4FC491CC23A9F0162F81110E948D
:100390006601EC2FF0E0EE0FFF1FE359FE4FA59131
:1003A000B4918FB7F894EC91111108C0D095DE2369
:1003B000DC938FBFDF91CF911F910895DE2BF8CF93
:1003C0003FB7F89480911B0290911C02A0911D02EE
:1003D000B0911E0226B5A89B05C02F3F19F00196CB
:1003E000A11DB11D3FBFBA2FA92F982F8827BC018F
:1003F000CD01620F711D811D911D42E0660F771FB7
:10040000881F991F4A95D1F708958F929F92AF92B6
:10041000BF92CF92DF92EF92FF924B015C010E945C
:10042000E0016B017C010E94E0016C197D098E09DD
:100430009F09683E734081059105A8F321E0821A67
:100440009108A108B10888EEC80E83E0D81EE11C0F
:10045000F11C81149104A104B10429F7FF90EF90DD
:10046000DF90CF90BF90AF909F908F9008952FB75F
:10047000F89460911702709118028091190290917E
:100480001A022FBF08950E943702EDE7F3E0648F50
:10049000758F868F978F1082118212821382148239
:1004A0001582168217821086118612861386089589
:1004B00008950895089508954091F7015091F80125
:1004C0002091F5013091F60142175307B4F4909151
:1004D000E8009570E1F39091E80092FD19C08093D7
:1004E000F1008091F7019091F80101968F7399279F
:1004F000892B19F48EEF8093E8008091F701909199
:10050000F80101969093F8018093F70181E0089536
:1005100080E00895EF92FF920F931F93CF93DF93A4
:10052000F82E192FE62E042F81E0860F880F0E94E7
:100530005C0283E00E945C02CF2DD12FEC0EFD2ED9
:10054000F11CCE15DF05B9F007FF13C0FE01849141
:100550000E945C02182F80E00E945C028123219699
:100560008111EFCFDF91CF911F910F91FF90EF900D
:1005700008958881EDCF81E0F5CFDF92EF92FF9271
:100580000F931F93CF93DF93D82E8A01EB017B014A
:10059000E40EF51ECE15DF0559F0D7FE12C0FE01A0
:1005A00084910E945C0221968111F4CF0FEF1FEF1E
:1005B000C801DF91CF911F910F91FF90EF90DF90D5
:1005C00008958881EECF0F931F93CF93DF931F92EF
:1005D000CDB7DEB782E0898342E450E066EE70E09A
:1005E00080E80E94BD020E945201DC0112960D912A
:1005F0001C910115110589F0D801ED91FC91028043
:10060000F381E02DBE016F5F7F4FC801099597FD13
:1006100004C0F80100851185ECCF89810F90DF912E
:10062000CF911F910F910895615030F02091F1000A
:10063000FC0120830196F8CF289884E680932B0252
:100640000895AF92BF92CF92DF92EF92FF920F93F5
:100650001F93CF93DF936C017B018B01040F151F58
:10066000EB015E01AE18BF08C017D10759F06991C0
:10067000D601ED91FC910190F081E02DC601099524
:10068000892B79F7C501DF91CF911F910F91FF90D1
:10069000EF90DF90CF90BF90AF900895FC01538D05
:1006A000448D252F30E0842F90E0821B930B54174C
:1006B00010F0CF96089501970895FC01918D828DD9
:1006C000981761F0A28DAE0FBF2FB11D5D968C9172
:1006D000928D9F5F9F73928F90E008958FEF9FEFB1
:1006E0000895FC01918D828D981731F0828DE80F6D
:1006F000F11D858D90E008958FEF9FEF0895FC0127
:10070000918D228D892F90E0805C9F4F821B9109F3
:100710008F739927089589E792E00E947F0321E073
:10072000892B09F420E0822F089580E090E0892B46
:1007300029F00E948B0381110C9400000895FC01A4
:10074000A48DA80FB92FB11DA35ABF4F2C91848D32
:1007500090E001968F739927848FA689B7892C938F
:10076000A089B1898C9182748C93938D848D981318
:1007700006C00288F389E02D80818F7D80830895F3
:10078000EF92FF920F931F93CF93DF93EC0181E0E1
:10079000888F9B8D8C8D981319C0E889F989808189
:1007A00085FF14C09FB7F894EE89FF896083E889BC
:1007B000F9898081827480839FBF81E090E0DF911E
:1007C000CF911F910F91FF90EF900895F62E0B8D12
:1007D00010E00F5F1F4F0F731127E02E8C8D8E11CD
:1007E0000CC00FB607FCFACFE889F989808185FF34
:1007F000F5CFCE010E949F03F1CFEB8DEC0FFD2FC3
:10080000F11DE35AFF4FF0829FB7F8940B8FEA89EE
:10081000FB8980818062CFCFCF93DF93EC01888DFD
:100820008823B9F0AA89BB89E889F9898C9185FD6B
:1008300003C0808186FD0DC00FB607FCF7CF8C91F9
:1008400085FFF2CF808185FFEDCFCE010E949F030F
:10085000E9CFDF91CF9108958F929F92AF92BF928F
:10086000CF92DF92EF92FF920F931F93CF93DF937C
:100870006C017B018A0180910B01882309F45CC023
:1008800080912C02882309F457C08091FB0180FFDE
:1008900005C08091E00082608093E000E801B12C07
:1008A0008AEFA82E93E0892E2AE3922E209711F446
:1008B000BB20D9F10E94410181110AC0AA94AA204B
:1008C000D9F161E070E080E090E00E940502EECF97
:1008D0008C171D0611F00CF08C2F9FB7F8948092A6
:1008E000E9002091E80025FD02C09FBFDFCF282F3F
:1008F00030E0C21BD30BF701815020F041914093AF
:10090000F100FACFE20EF31EBB2021F09092E80036
:10091000B12CEBCF8091E80085FDE7CF9092E80005
:10092000BB24B394209709F3F3CF5D9884E68093BA
:10093000FA01101611063CF081E090E0F601938375
:10094000828310E000E0C801DF91CF911F910F91E9
:10095000FF90EF90DF90CF90BF90AF909F908F90DF
:100960000895CF93DF931F92CDB7DEB76983DC0183
:10097000ED91FC910280F381E02D41E050E0BE0159
:100980006F5F7F4F09950F90DF91CF910895682F8A
:1009900086E193E00C94B10483E08093E9008091B8
:1009A000F200882319F08AE38093E80008950E94FA
:1009B000410190E00895CF93DF931F92CDB7DEB74A
:1009C000FC018485958597FD08C02FEF3FEF3587A3
:1009D00024870F90DF91CF910895CE0101960E9458
:1009E0001701019719F4898190E0F3CF8FEF9FEF02
:1009F000F0CF0F931F93CF93DF931F92CDB7DEB746
:100A00008C01FC018485958597FF0BC0CE01019672
:100A10000E941701019771F4898190E0F801958790
:100A20008487F801848595850F90DF91CF911F9180
:100A30000F9108958FEF9FEFF1CFFC01848595858D
:100A400097FD0BC09FB7F89482E08093E9008091F6
:100A5000F2009FBF90E0019608959FB7F89482E05E
:100A60008093E9008091F2009FBF90E008952E9856
:100A7000269A2D98259A2A98229A2998219A2F9871
:100A8000279A8AEA8093800089E18093810084EA32
:100A900091E09093870080938600109289001092D5
:100AA000880010928B0010928A0010928D00109294
:100AB0008C000895CF93DF93EC018091E4018111C4
:100AC00005C081E08093E4010E94370580E0D7FFF4
:100AD00004C0D195C195D10981E0CD3291E0D9070B
:100AE00014F0CCE2D1E0D0938900C0938800882331
:100AF00029F0299A219ADF91CF9108952998FACF68
:100B0000CF93DF93EC018091E401811105C081E076
:100B10008093E4010E94370580E0D7FF04C0D1959F
:100B2000C195D10981E0CD3291E0D90714F0CCE232
:100B3000D1E0D0938B00C0938A00882329F02A9AB1
:100B4000229ADF91CF9108952A98FACF8CB1282F5D
:100B500030E03595279535952795422F417083B123
:100B600090E054E0959587955A95E1F7822781703A
:100B70002091E2019091E3016091060270910702D9
:100B800024279827291B330B260F371F3093070282
:100B9000209306022091E2019091E301281729F0A9
:100BA000941719F091E09093E1018093E201409352
:100BB000E30108959FB191708CB186FB882780F97D
:100BC00089272091DF013091E0014091030250918B
:100BD000040229273827231B330B240F351F30939A
:100BE0000402209303023091DF012091E0013817C5
:100BF00029F0291719F021E02093DE018093DF010D
:100C00009093E001089524982C9A6A98729A6E98AD
:100C1000769A8098889AF89491E090936800EBE631
:100C2000F0E080818061808326EA35E03093EE0138
:100C30002093ED019BBB809166038F7E80936603BA
:100C400083B1909166038071892B809366037894B9
:100C50008AED95E09093150180931401EAE6F0E0A7
:100C600080818F7C80618083EE9A8CB182FB8827A3
:100C700080F98093E30193B18091E30192959170A3
:100C800089278093E20110920702109206021092C7
:100C9000E1018FB181708093E0019CB18091E0010E
:100CA00096FB992790F989278093DF01109204021F
:100CB000109203021092DE0108950F931F93CF93B9
:100CC000DF93EC01888581112FC0898590E0FC01BC
:100CD000E656FE4F85589E4F21E028872A8522231D
:100CE00009F44CC02491FC0184918823C9F090E060
:100CF000880F991FFC01E653FF4F45915491FC0169
:100D0000E359FE4FA591B4919FB7F894FA01308151
:100D1000822F809583238083EC91E22BEC939FBFFD
:100D20008FE090E00197F1F7298530E0F901E75471
:100D3000FE4F8491F901E656FE4F0491F901E55802
:100D4000FE4F1491112309F437C081110E946601EE
:100D5000E12FF0E0EE0FFF1FE852FF4FA591B49195
:100D6000EC910E2331E009F430E0832F2B858227AC
:100D70008170DF91CF911F910F9108952491FC0113
:100D80008491882309F4CCCF90E0880F991FFC014F
:100D9000E653FF4F45915491FC01E359FE4FA59155
:100DA000B4919FB7F894FA018081209582238083C3
:100DB0008C91E22FE823B2CF80E0D8CF0F931F931E
:100DC000CF938C01C62F0E943702F8012081213079
:100DD00091F030F02230F1F0233011F1C0E006C084
:100DE000C111FCCF7283618381E080838C2FCF910E
:100DF0001F910F910895CC2311F01082EFCF218124
:100E00003281621B730B6F30710580F382E0F80151
:100E10008083E4CFCC2351F37283618383E0F8CFE6
:100E2000CC23A1F321813281621B730B6F307105DA
:100E3000A8F21082DBCF2091BB01260F3327331F8E
:100E400021323105ECF420917302FC0190E080E046
:100E5000243069F082E00895A091BB012191AC019A
:100E600045565E4FA40FB52FB11D2C9301968617E2
:100E700098F38091BB01680F6093BB0180E00895F7
:100E800081E008951092730281E0809352021092E3
:100E90004D0261E082E00E94B20161E083E00E94C5
:100EA000B201E9EBF0E080818E7F808380818D7FCD
:100EB000808388E48093B80085E48093BC00089523
:100EC000CF93DF9391E090939A018823B9F0C0917A
:100ED000B800D091BA008091BC008A7B8093BC009E
:100EE00060E082E00E94B20160E083E00E94B20113
:100EF0000E944207D093BA00C093B800DF91CF910F
:100F000008958F929F92AF92BF92CF92DF92EF920D
:100F1000FF920F931F93CF93DF93D82FC62F142FD9
:100F2000613208F09CC00E94E0016B017C0180915D
:100F3000730281116FC081E080937302109352029B
:100F40009FEF90935102109250029C0F90934F028A
:100F500080934E0280914E02DD0FD82BD0934E022B
:100F600080914D02813009F07CC010924D020E94A8
:100F7000E0016B017C0180914E028093BB00809167
:100F8000750290917602A0917702B0917802892B38
:100F90008A2B8B2BA1F00E94E00100917502109129
:100FA000760220917702309178026C197D098E09C2
:100FB0009F09061717072807390708F44CC08091C6
:100FC000BC0083FDD8CF85EC8093BC000E94E0017B
:100FD0006B017C0180917302813009F444C08091DF
:100FE00050028C1710F4C0915002EDE2F2E0A3E53C
:100FF000B2E080E08C1359C08C2FDF91CF911F910C
:101000000F91FF90EF90DF90CF90BF90AF909F90A7
:101010008F9008958091750290917602A091770249
:10102000B0917802892B8A2B8B2B09F480CF0E94F8
:10103000E0018090750290907602A0907702B090C7
:1010400078026C197D098E099F0986169706A806F5
:10105000B90608F06CCF809174020E946007C0E06E
:10106000CBCF85EEB1CF8091750290917602A091A1
:101070007702B0917802892B8A2B8B2B09F4AACFA7
:101080000E94E00100917502109176022091770292
:10109000309178026C197D098E099F090617170790
:1010A0002807390708F096CFD6CF91919D938F5F8F
:1010B000A1CFE091150280911402E81730F4F0E01E
:1010C000ED5AFD4F808190E008958FEF9FEF0895D6
:1010D00090911502809114022FEF3FEF981748F47A
:1010E000E92FF0E0ED5AFD4F208130E09F5F9093B3
:1010F0001502C90108958091140290911502891B6F
:10110000990B0895CF93DF93CB01EA01642F0E94DE
:101110001B07CE01DF91CF910895CF93DF931F92EC
:10112000CDB7DEB7698361E0CE0101960E941B074F
:1011300081E090E00F90DF91CF91089590E080E002
:101140000895FC0101900020E9F73197AF01481B99
:10115000590BBC0186E193E00C942C048F929F9272
:10116000AF92BF920F931F93CF93DF93CDB7DEB7AC
:10117000A1970FB6F894DEBF0FBECDBF19A24230C3
:1011800008F44AE08E010F5D1F4F842E912CB12C84
:10119000A12CA50194010E945316E62FB901CA01A2
:1011A000EA30F4F4E05DD801EE938D01232B242B7B
:1011B000252B79F790E080E0109719F0CD010E947F
:1011C000A108A1960FB6F894DEBF0FBECDBFDF9188
:1011D000CF911F910F91BF90AF909F908F900895E6
:1011E000E95CE1CF4F925F926F927F928F929F92D4
:1011F000AF92BF92CF92DF92EF92FF920F931F9325
:10120000CF936B017C01742EAC019B010E940519E8
:10121000882399F08BE891E0CF911F910F91FF9077
:10122000EF90DF90CF90BF90AF909F908F907F9086
:101230006F905F904F900C94A10846015701E8947D
:10124000B7F82FEF3FEF4FE75FE7C501B4010E940A
:10125000051981110DC02FEF3FEF4FE75FE7C50183
:10126000B4010E94E81618161CF48FE891E0D4CF60
:101270002FEF3FEF4FE75FE4C701B6010E948B18E5
:1012800018161CF483E991E0C7CF2FEF3FEF4FE72B
:101290005FECC701B6010E94E81687FDF3CF20E09E
:1012A00030E0A901C701B6010E94E81610E000E095
:1012B00087FF08C08DE20E94C7048C01F7FAF09402
:1012C000F7F8F094C0E060E070E080E09FE37C1607
:1012D00041F020E030E040E251E40E94F216CF5F9E
:1012E000F6CFA70196010E947C162B013C010E94BB
:1012F0006B174B015C014AE00E94AE087C01E00ED6
:10130000F11ECC23B1F1C501B4010E949A179B01D3
:10131000AC01C301B2010E947B164B015C018EE25D
:101320000E94C704E80EF91EC15018F120E030E019
:1013300040E251E4C501B4010E9490182B013C0128
:101340000E946B174B01B12CA12C4AE0C501B401DE
:101350000E94AE08E80EF91EC501B4010E949A175A
:101360009B01AC01C301B2010E947B164B015C01E1
:10137000DBCFC701CF911F910F91FF90EF90DF90CE
:10138000CF90BF90AF909F908F907F906F905F9025
:101390004F9008950E94531985ED8093BC00809171
:1013A000750290917602A0917702B091780207962B
:1013B000A11DB11D23E0B695A795979587952A9510
:1013C000D1F72091BC0024FD03C010927302089550
:1013D0004091750250917602609177027091780287
:1013E000452B462B472B69F30097A105B10541F02A
:1013F00025E32A95F1F700000197A109B109E1CF92
:10140000809174020C946007CF93DF93A2EEB0E05A
:101410009C911C92E9EEF0E020811082C0EFD0E0B8
:101420003881188240E05D99416055994260559835
:101430005D9A80E18A95F1F789B141FB0EF05598EC
:1014400040FB0EF05D980EF45D9A41FB0EF4559A48
:101450001082388320839C9390E025E095958795B2
:101460002A95E1F7809590958170DF91CF9108954D
:101470001F920F920FB60F9211242F933F938F93C9
:101480009F93AF93BF938091170290911802A09100
:101490001902B0911A023091160223E0230F2D3762
:1014A00058F50196A11DB11D2093160280931702D5
:1014B00090931802A0931902B0931A0280911B0214
:1014C00090911C02A0911D02B0911E020196A11DD7
:1014D000B11D80931B0290931C02A0931D02B09338
:1014E0001E02BF91AF919F918F913F912F910F90CD
:1014F0000FBE0F901F90189526E8230F0296A11D8E
:10150000B11DD2CF1F920F920FB60F9211242F93BD
:101510003F934F935F936F937F938F939F93AF937B
:10152000BF93EF93FF93E0911401F091150109959A
:10153000FF91EF91BF91AF919F918F917F916F91AB
:101540005F914F913F912F910F900FBE0F901F9081
:1015500018951F920F920FB60F9211242F933F935D
:101560004F935F936F937F938F939F93AF93BF93AB
:10157000EF93FF93E0911201F09113010995FF9110
:10158000EF91BF91AF919F918F917F916F915F91FB
:101590004F913F912F910F900FBE0F901F90189574
:1015A0001F920F920FB60F9211242F933F934F93D8
:1015B0005F936F937F938F939F93AF93BF93EF93BB
:1015C000FF93E0911001F09111010995FF91EF91C6
:1015D000BF91AF919F918F917F916F915F914F914B
:1015E0003F912F910F900FBE0F901F9018951F9253
:1015F0000F920FB60F9211242F933F934F935F9347
:101600006F937F938F939F93AF93BF93EF93FF93CA
:10161000E0910E01F0910F010995FF91EF91BF91BB
:10162000AF919F918F917F916F915F914F913F917A
:101630002F910F900FBE0F901F9018951F920F9231
:101640000FB60F9211242F933F934F935F936F9395
:101650007F938F939F93AF93BF93EF93FF93E0910B
:101660000C01F0910D010995FF91EF91BF91AF91A0
:101670009F918F917F916F915F914F913F912F91AA
:101680000F900FBE0F901F9018951F920F920FB6DC
:101690000F9211248F939F938091E1009091E1002C
:1016A000937F9093E10083FF0FC01092E90091E0D7
:1016B0009093EB001092EC0092E39093ED00109267
:1016C0002C0298E09093F00082FF22C093E0909368
:1016D000E9009091F200992319F09AE39093E800C1
:1016E0009091FA01992341F09091FA0191509093D1
:1016F000FA01911101C05D9A90912B02992341F05A
:1017000090912B02915090932B02911101C0289A35
:1017100084FF18C08091E2008E7E81608093E20099
:101720008091E1008F7E8093E1008091FB018E7EAD
:1017300080618093FB019F918F910F900FBE0F905E
:101740001F90189580FFF7CF8091E2008E7E806118
:101750008093E2008091E1008E7E8093E100809191
:10176000FB018E7E8160E5CF1F920F920FB60F9224
:101770001124CF92DF92EF92FF920F931F932F933A
:101780003F934F935F936F937F938F939F93AF9309
:10179000BF93EF93FF93CF93DF93CDB7DEB76C97F3
:1017A000DEBFCDBF1092E9008091E80083FF25C025
:1017B00068E0CE0145960E94140382EF8093E80012
:1017C0008D8987FF39C09091E80090FFFCCF982F5A
:1017D000907609F034C19E894F89588D2F89F88CF5
:1017E000911131C0803861F58091FC018093F10046
:1017F0001092F1008EEF8093E8006C960FB6F8948B
:10180000DEBF0FBECDBFDF91CF91FF91EF91BF91B2
:10181000AF919F918F917F916F915F914F913F9188
:101820002F911F910F91FF90EF90DF90CF900F902D
:101830000FBE0F901F9018959EEF9093E800C7CFB2
:101840001092F100D5CF913059F48111D3CF4130AE
:10185000510581F68091FC018D7F8093FC01CACFF8
:10186000933049F48111C6CF4130510519F680916A
:10187000FC018260F2CF953041F48091E80080FF56
:10188000FCCF20682093E300B5CF963009F0A9C0C3
:101890000B8D1C8D22E01092E9001092F80110923D
:1018A000F701F2122EC01092F6011092F5010E947B
:1018B000E3021F8299E09983FA8291E09E8390EA85
:1018C00098879AEF99872091F7013091F801275F67
:1018D0003F4F3C832B838D831092E9001092F801D7
:1018E0001092F7011093F6010093F50149E050E0E2
:1018F000BE016F5F7F4F80E00E94BD020E94E30245
:1019000079CF1093F6010093F5010E945201DC019A
:1019100012960D911C910115110509F451C1D801C0
:10192000ED91FC910480F581E02DBE016B5E7F4F4F
:10193000C8010995009709F03EC1F801008511859D
:10194000EACFF3E0FF120EC08F89882309F440C06C
:10195000823061F440E862E181E591E00E948A0210
:10196000811148CF81E28093EB0047CF813029F489
:1019700040E862E18EE391E0F1CF833099F70E9475
:101980005201DC011296ED90FC908E010F5F1F4F0B
:101990006801E114F10479F0D701ED91FC91068022
:1019A000F781E02DB801C7010995080F111DF70156
:1019B000E084F184EECFD8011C92F6010190002062
:1019C000E9F73197BF016C197D0940E0C601C6CF28
:1019D00068E271E0FB01449150E080E80E94BD02A2
:1019E00009CF973009F4BECF983021F481E080937D
:1019F000F10000CF993009F0FDCE837009F0B2CF2D
:101A0000E3E4F1E081E031E096E32191222371F0FB
:101A10008093E9003093EB00DF0111972C91209324
:101A2000EC009093ED008F5F873079F78EE780931D
:101A3000EA001092EA008F8980932C02DBCE8B8D16
:101A40009C8D1092E9001092F8011092F70190938A
:101A5000F6018093F501898D811192C08E899D894F
:101A6000913A49F4813209F07DCF47E050E064E0DB
:101A700071E080E0B3CF913209F074CF833269F422
:101A80008F89988DB0E0A0E08093000190930101D0
:101A9000A0930201B0930301ADCE803269F480912E
:101AA000E80082FFFCCF67E084E091E00E9414032D
:101AB0008BEF8093E8009ECE823209F09BCE8F8917
:101AC00080930B01EEEFFFE7859194918B3F9C4D46
:101AD00051F1E0E0F8E08091040190910501A091BE
:101AE0000601B0910701803B9440A105B105F1F4D6
:101AF00080910B0180FD1AC0EE3F8AE0F80789F55E
:101B000087E797E791838083809160008093F90154
:101B100088E19BE00FB6F894A895809360000FBE13
:101B20009093600067CEEEEFFAE0D5CF808191818F
:101B30008737974709F05ECEA8958091600088614D
:101B4000809360008091F90180936000EE3F2AE06D
:101B5000F20789F08091FE0A9091FF0A91838083B9
:101B600049CE808191818737980751F29093FF0A7F
:101B70008093FE0AC5CF1092FF0A1092FE0A3ACE59
:101B80000E945201DC0112960D911C910115110564
:101B900009F4E8CED801ED91FC910190F081E02D9F
:101BA000BE016B5E7F4FC8010995811123CEF801FC
:101BB00000851185EBCF181619060CF41BCED2CE7A
:101BC000F1E0FF12BECE6CE271E004CF1F920F92E3
:101BD0000FB60F9211242F933F934F935F936F9300
:101BE0007F938F939F93AF93BF93EF93FF9389E777
:101BF00092E00E949F03FF91EF91BF91AF919F915F
:101C00008F917F916F915F914F913F912F910F90A5
:101C10000FBE0F901F9018951F920F920FB60F9244
:101C200011242F938F939F93EF93FF93E091890259
:101C3000F0918A028081E0918F02F091900282FD02
:101C40001BC09081809192028F5F8F7320919302CD
:101C5000821741F0E0919202F0E0E758FD4F958F36
:101C600080939202FF91EF919F918F912F910F900E
:101C70000FBE0F901F9018958081F4CF1F920F9286
:101C80000FB60F9211242F933F934F935F936F934F
:101C90007F938F939F93AF93BF93EF93FF93CF93D4
:101CA000DF9300D01F92CDB7DEB783B189838981DE
:101CB0009091660389278A8380916B009A8189239A
:101CC0008B838B8180FF05C0E091E501F091E601F7
:101CD00009958B8181FF05C0E091E701F091E80152
:101CE00009958B8182FF05C0E091E901F091EA013D
:101CF00009958B8183FF05C0E091EB01F091EC0128
:101D000009958B8184FF05C0E091ED01F091EE0112
:101D100009958B8185FF05C0E091EF01F091F001FD
:101D200009958B8186FF05C0E091F101F091F201E8
:101D300009958B8187FF05C0E091F301F091F401D3
:101D400009958981809366030F900F900F90DF9122
:101D5000CF91FF91EF91BF91AF919F918F917F9123
:101D60006F915F914F913F912F910F900FBE0F9008
:101D70001F9018951F920F920FB60F9211242F9358
:101D80003F934F935F936F937F938F939F93AF9303
:101D9000BF93EF93FF938091B900887F803609F459
:101DA0004AC0F0F5883209F4A7C018F5803109F46B
:101DB0009BC0B8F4882309F4F9C0883009F494C0B2
:101DC000FF91EF91BF91AF919F918F917F916F9113
:101DD0005F914F913F912F910F900FBE0F901F90E9
:101DE0001895883109F488C0803251F780935102E8
:101DF00014C0803409F49DC040F48033B9F38833B3
:101E0000F9F68093510285ECB0C0803509F485C0A5
:101E1000883509F496C0883499F60E94CC09D0CF51
:101E2000883909F48CC038F5883729F050F48836A1
:101E300011F0803729F683E0809373021092DD0160
:101E400057C0883809F47BC0803919F0803809F010
:101E5000B7CF8091DD01803208F071C0E091DD01E3
:101E600081E08E0F8093DD018091BB00F0E0E354B0
:101E7000FE4F80833DC0803B39F0E0F4803A09F4A6
:101E800079C0883A09F09CCF84E080937302109265
:101E9000BC011092BB01E091FF01F0910002099595
:101EA0008091BB0181110FC081E08093BB01109232
:101EB0009B0109C0803C09F4A6CF883C09F4A3CF5C
:101EC000883B09F07DCFE091BC0181E08E0F8093CB
:101ED000BC01F0E0E556FE4F80818093BB009091FD
:101EE000BC018091BB0129C080914E028093BB0050
:101EF00085EC8093BC0064CF9091500280914F029A
:101F0000981758F5E091500281E08E0F80935002AF
:101F1000F0E0E35DFD4F8081E9CFE091500281E088
:101F20008E0F809350028091BB00F0E0E35DFD4F87
:101F300080839091500280914F029817C8F285E8F3
:101F4000D8CFE091500281E08E0F809350028091B3
:101F5000BB00F0E0E35DFD4F808380915202811170
:101F60005CCF81E080934D0284EA8093BC001092A4
:101F7000730226CF85EC8093BC001092730280918F
:101F8000DD01803230F4E091DD01F0E0E354FE4FFA
:101F900010826091DD0170E0E091FD01F091FE01A1
:101FA0008DEB91E009951092DD010ACF109251025C
:101FB00034CFE9E7F2E01382128288EE93E0A0E0EA
:101FC000B0E084839583A683B7832DE431E0318329
:101FD00020832DEC30E0358724872CEC30E03787E8
:101FE000268728EC30E0318B208B29EC30E0338BD6
:101FF000228B2AEC30E0358B248B2EEC30E0378BB3
:10200000268B118E128E138E148EE6E1F3E013826E
:10201000128284839583A683B7832FE531E03183D1
:1020200020832FEF3FEF3587248723B1209366036A
:10203000E7E6F3E01382128284839583A683B78355
:1020400081E791E091838083E3E7F3E011821082DE
:102050008DE290E0958384838FE692E1A3E0BAE37A
:1020600086839783A087B187EDE7F3E0108611861A
:1020700012861386148A158A168A178A10A211A24C
:1020800012A213A280E090E0A8E4B3E484A395A395
:10209000A6A3B7A30E943702EEEBF3E012821582EB
:1020A00010868EE0818781E08287838789E891E0CE
:1020B00091838083E6EBF3E01282158283E891E05E
:1020C000918380831092B5030895CF93DF93CDB7AA
:1020D000DEB7C255D1090FB6F894DEBF0FBECDBF33
:1020E000789484B5826084BD84B5816084BD85B5F3
:1020F000826085BD85B5816085BD80916E008160FF
:1021000080936E00109281008091810082608093A4
:1021100081008091810081608093810080918000A6
:102120008160809380008091910082608093910013
:1021300080919100816080939100809190008160F6
:10214000809390008091C10084608093C100809151
:10215000C10082608093C1008091C1008160809342
:10216000C1008091C30081608093C3008091C00052
:1021700082608093C0008091C20081608093C20021
:1021800080917A00846080937A0080917A008260E6
:1021900080937A0080917A00816080937A008091A8
:1021A0007A00806880937A0010922C021092FC01D1
:1021B0001092FB018091D70081608093D70080EA64
:1021C0008093D80089B5806189BD89B5826089BD59
:1021D00009B400FEFDCF61E070E080E090E00E9475
:1021E00005028091D8008F7C80618093D800809117
:1021F000E000807F8093E0008091E1008E7E8093FC
:10220000E1008DE08093E200559A209A8FEF9FEFD6
:10221000909323038093220368EE73E080E090E0C4
:102220000E940502109215021092140210920202EE
:10223000109201020E94420789E592E09093000209
:102240008093FF018AE592E09093FE018093FD0167
:1022500088E48093B80004E611E0F80164916623F5
:1022600041F086E193E00E94B1040F5F1F4F892B7C
:10227000A1F787E991E00E94A1080E94430222246D
:1022800023949E012F5E3F4F3A8B298B3324339446
:102290008091730390917403009799F0019799F1DD
:1022A00061E070E080E090E00E94050240E050E0D4
:1022B000452B71F30E948B03882351F30E94000089
:1022C000E7CF8EEB93E00E945D06682F622583ECDA
:1022D00093E00E94DE06882389F041E050E05093AD
:1022E00074034093730390E080E00E94800590E0C7
:1022F00080E00E945A050E944302D2CF10927403DC
:1023000010927303F0CF86EB93E00E94040A682FCB
:1023100062258BEB93E00E94DE06882329F0109261
:10232000740310927303BCCF8BE891E00197F1F72F
:1023300041E061E082E10E948107109215028093E2
:102340001402813009F0ACCF87E693E00E94680860
:10235000882309F4A5CF83EE93E00197F1F741E0DC
:1023600060E182E10E9481071092150280931402BD
:10237000803109F095CF8E010F5F1F4F87E693E004
:102380000E946808D8018D938D01E989FA89AE17FA
:10239000BF07A1F78B859C856091750370917603CB
:1023A000681B790B90E080E00E949A1720917903D6
:1023B00030917A0340917B0350917C030E949018E6
:1023C0006B8B7C8B8D8B9E8B42E00E94F20887E9A1
:1023D00091E00E94A1080E9437026B017C0180916C
:1023E000100290911102A0911202B0911302B70154
:1023F000A601481B590B6A0B7B0B8091220190911F
:102400002301092E000CAA0BBB0B481759076A07BA
:102410007B0708F445CF80910E0290910F029093B4
:102420000D0280930C0280910A0290910B0290930E
:1024300009028093080280910502811104C0309244
:1024400005020E940306F89480910602909107020B
:10245000789490930F0280930E028091050281116F
:1024600004C0309205020E940306F8940091030212
:1024700010910402789410930B0200930A020E94B8
:102480003702C0921002D0921102E0921202F09232
:1024900013022091160130911701409118015091BB
:1024A000190160911E0170911F018091200190918E
:1024B00021010E94F2164B015C0160910E027091A5
:1024C0000F0280910C0290910D02681B790B072E70
:1024D000000C880B990B0E949C176B8F7C8F8D8F43
:1024E0009E8F6091220170912301072E000C880BB2
:1024F000990B0E949C1720E030E04AE754E40E94C8
:10250000F2166B017C012B8D3C8D4D8D5E8DC501CE
:10251000B4010E949018A70196010E94F2169B0137
:10252000AC016B897C898D899E890E947B162B0169
:102530003C018091080290910902B801681B790B57
:10254000072E000C880B990B0E949C176BA37CA391
:102550008DA39EA3A50194010E949018A701960146
:102560000E94F2169B01AC016B897C898D899E8942
:102570000E947B166F8F78A389A39AA320912C01C8
:1025800030912D0140912E0150912F01C301B201D4
:102590000E947C164B015C0180922C0190922D01CF
:1025A000A0922E01B0922F01209130013091310183
:1025B00040913201509133016F8D78A189A19AA188
:1025C0000E947C166FA378A789A79AA76093300111
:1025D000709331018093320190933301C0902401B4
:1025E000D0902501E0902601F0902701209128014C
:1025F0003091290140912A0150912B012F8B388F66
:10260000498F5A8FA7019601C301B2010E94901809
:102610002B013C012F89388D498D5A8DC501B4019C
:102620000E9490189B01AC01C301B2010E947C166C
:102630000E946417CB010E948005A70196016F8D4F
:1026400078A189A19AA10E9490186B017C012F8921
:10265000388D498D5A8D6FA178A589A59AA50E94BC
:1026600090189B01AC01C701B6010E947C160E9424
:102670006417CB010E945A05C0901E01D0901F0123
:10268000E0902001F09021018090160190901701B8
:10269000A0901801B090190100912201109123011E
:1026A0000E9437026F8B788F898F9A8F60939D037A
:1026B00070939E0380939F039093A003809199034E
:1026C00090919A03A0919B03B0919C03892B8A2B34
:1026D0008B2B61F48F89988DA98DBA8D8093990386
:1026E00090939A03A0939B03B0939C0380919903CA
:1026F00090919A03A0919B03B0919C032F89388DF0
:10270000498D5A8D281B390B4A0B5B0BCA01B90145
:102710000E949A172B013C0120E030E048E452E48B
:102720000E948B1887FD22C1A5019401C701B60143
:102730000E94F2164B015C01B801110F880B990B36
:102740000E949C1720E030E04AE754E40E94F21611
:102750006B017C012B8D3C8D4D8D5E8DC501B401CF
:102760000E949018A70196010E94F2166B8F7C8F31
:102770008D8F9E8F80917D0390917E03A0917F032A
:10278000B09180038BA79CA7ADA7BEA720E030E047
:102790004AE754E4C301B2010E94F2162B013C0146
:1027A00020918503309186034091870350918803DF
:1027B0002FA338A749A75AA7CA01B9010E94FD183B
:1027C0006FAB78AF89AF9AAF80918103909182030C
:1027D000A0918303B09184038BAF9CAFADAFBEAF2C
:1027E0006FA178A589A59AA50E94ED1623966CAFD6
:1027F0007DAF8EAF9FAF23972091890330918A03DD
:1028000040918B0350918C0327962CAF3DAF4EAF78
:102810005FAF27978091910390919203A0919303CA
:10282000B09194038F8F98A3A9A3BAA3BC01CD0143
:102830000E94FD182B966CAF7DAF8EAF9FAF2B978C
:1028400020918D0330918E0340918F03509190031E
:102850002BAB3CAB4DAB5EAB6F8D78A189A19AA140
:102860000E94ED166FA778AB89AB9AAB2B893C8998
:102870004D895E89CA01B9010E94E8168111E8C03C
:1028800023962CAD3DAD4EAD5FAD23976B897C8912
:102890008D899E890E949018A30192010E94901830
:1028A0002BA53CA54DA55EA50E947C1660937D03DB
:1028B00070937E0380937F03909380032FA938AD9C
:1028C00049AD5AAD6B897C898D899E890E9490188B
:1028D000A30192010E9490182BAD3CAD4DAD5EADB1
:1028E0000E947C166093810370938203809383031C
:1028F000909384032B8D3C8D4D8D5E8D6FA578A9B3
:1029000089A99AA90E949018A30192010E94901887
:1029100027962CAD3DAD4EAD5FAD27970E947C163E
:102920006093890370938A0380938B0390938C0345
:102930002B962CAD3DAD4EAD5FAD2B976B8D7C8D49
:102940008D8D9E8D0E949018A30192010E94901877
:102950002BA93CA94DA95EA90E947C1660938D030A
:1029600070938E0380938F03909390032F89388DFB
:10297000498D5A8D2093990330939A0340939B037A
:1029800050939C0360917D0370917E0380917F033F
:102990009091800342E00E94F2088CE20E94C704FA
:1029A00060918103709182038091830390918403ED
:1029B00042E00E94F2088CE20E94C7046091850305
:1029C00070918603809187039091880342E00E9472
:1029D000F2088CE20E94C7046091890370918A0317
:1029E00080918B0390918C0342E00E94F2088CE26C
:1029F0000E94C70460918D0370918E0380918F03B4
:102A00009091900342E00E94F2088CE20E94C70479
:102A1000609191037091920380919303909194033C
:102A200042E00E94F2088CE20E94C7040E94370232
:102A30000E949A1720E030E04AE754E40E94F21620
:102A400042E00E94F20887E991E00E94A10828CCA8
:102A50002BA13CA14DA15EA1C501B4010E9490181B
:102A6000A70196010E94F2162F966CAF7DAF8EAF34
:102A70009FAF2F972B893C894D895E89CA01B90187
:102A80000E947B166B017C018091A1039091A203AF
:102A9000A091A303B091A4038BA39CA3ADA3BEA359
:102AA0002B8D3C8D4D8D5E8D2F966CAD7DAD8EAD9D
:102AB0009FAD2F970E947B1663966CAF7DAF8EAF54
:102AC0009FAF639720E030E040E05FE36BA17CA123
:102AD0008DA19EA10E9490184B015C012B893C891D
:102AE0004D895E89CA01B9010E947C16A701960131
:102AF0000E94F216A50194010E9490186B8B7C8BAA
:102B00008D8B9E8B2F962CAD3DAD4EAD5FAD2F972F
:102B10006B8D7C8D8D8D9E8D0E947C1663962CAD69
:102B20003DAD4EAD5FAD63970E94F216A5019401D5
:102B30000E9490184B015C012BA13CA14DA15EA10C
:102B4000C701B6010E94F216A30192010E949018DB
:102B50002FA138A549A55AA50E947C166B017C01BE
:102B60000E94FD182FA938AD49AD5AAD0E947B16C1
:102B70002B893C894D895E890E9490182BA53CA524
:102B80004DA55EA50E947C1660937D0370937E0325
:102B900080937F0390938003C701B6010E94ED16D6
:102BA0009B01AC0123966CAD7DAD8EAD9FAD23979F
:102BB0000E947B162B893C894D895E890E94901862
:102BC0002BAD3CAD4DAD5EAD0E947C166093810394
:102BD0007093820380938303909384032BA13CA181
:102BE0004DA15EA163966CAD7DAD8EAD9FAD63973B
:102BF0000E94F216A30192010E9490182F8D38A115
:102C000049A15AA10E947C162B013C010E94FD188B
:102C10002B962CAD3DAD4EAD5FAD2B970E947B1634
:102C2000A50194010E94901827962CAD3DAD4EADA4
:102C30005FAD27970E947C166093890370938A0387
:102C400080938B0390938C03C301B2010E94ED1615
:102C50009B01AC016FA578A989A99AA90E947B164E
:102C6000A50194010E9490182BA93CA94DA95EA929
:102C70000E947C1660938D0370938E0380938F0364
:102C800090939003C0928503D0928603E0928703CD
:102C9000F0928803409291035092920360929303C2
:102CA0007092940363CEA1E21A2EAA1BBB1BFD01F6
:102CB0000DC0AA1FBB1FEE1FFF1FA217B307E4071B
:102CC000F50720F0A21BB30BE40BF50B661F771F73
:102CD000881F991F1A9469F7609570958095909553
:102CE0009B01AC01BD01CF010895EE0FFF1F0590C0
:102CF000F491E02D09945058BB27AA270E949316FF
:102D00000C943D180E94041838F00E940B1820F013
:102D100039F49F3F19F426F40C9401180EF4E09551
:102D2000E7FB0C94FB17E92F0E94621858F3BA17BF
:102D3000620773078407950720F079F4A6F50C94D1
:102D400084180EF4E0950B2EBA2FA02D0B01B901BB
:102D500090010C01CA01A0011124FF27591B99F011
:102D6000593F50F4503E68F11A16F040A22F232F1D
:102D7000342F4427585FF3CF469537952795A7956D
:102D8000F0405395C9F77EF41F16BA0B620B730B14
:102D9000840BBAF09150A1F0FF0FBB1F661F771F85
:102DA000881FC2F70EC0BA0F621F731F841F48F43A
:102DB000879577956795B795F7959E3F08F0B0CFC3
:102DC0009395880F08F09927EE0F979587950895AA
:102DD0000E94D71708F481E008950E941418E39523
:102DE0000C944E180E9406170C943D180E940B1864
:102DF00058F00E94041840F029F45F3F29F00C9429
:102E0000FB1751110C9485180C9401180E9462183C
:102E100068F39923B1F3552391F3951B550BBB2709
:102E2000AA2762177307840738F09F5F5F4F220F4E
:102E3000331F441FAA1FA9F335D00E2E3AF0E0E845
:102E400032D091505040E695001CCAF72BD0FE2F8F
:102E500029D0660F771F881FBB1F26173707480723
:102E6000AB07B0E809F0BB0B802DBF01FF279358DB
:102E70005F4F3AF09E3F510578F00C94FB170C948D
:102E800085185F3FE4F3983ED4F386957795679570
:102E9000B795F7959F5FC9F7880F911D9695879510
:102EA00097F90895E1E0660F771F881FBB1F62172F
:102EB00073078407BA0720F0621B730B840BBA0BED
:102EC000EE1F88F7E09508950E946B176894B11182
:102ED0000C94851808950E946A1888F09F5798F0FE
:102EE000B92F9927B751B0F0E1F0660F771F881F0F
:102EF000991F1AF0BA95C9F714C0B13091F00E9429
:102F00008418B1E008950C948418672F782F8827CF
:102F1000B85F39F0B93FCCF3869577956795B3954F
:102F2000D9F73EF490958095709561957F4F8F4FBE
:102F30009F4F0895E89409C097FB3EF490958095C3
:102F4000709561957F4F8F4F9F4F9923A9F0F92F6F
:102F500096E9BB279395F695879577956795B795ED
:102F6000F111F8CFFAF4BB0F11F460FF1BC06F5FD3
:102F70007F4F8F4F9F4F16C0882311F096E911C0E5
:102F8000772321F09EE8872F762F05C0662371F006
:102F900096E8862F70E060E02AF09A95660F771F1A
:102FA000881FDAF7880F9695879597F90895990FF6
:102FB0000008550FAA0BE0E8FEEF16161706E80703
:102FC000F907C0F012161306E407F50798F0621B24
:102FD000730B840B950B39F40A2661F0232B242BF9
:102FE000252B21F408950A2609F4A140A6958FEF18
:102FF000811D811D089597F99F6780E870E060E06A
:1030000008959FEF80EC089500240A941616170681
:1030100018060906089500240A94121613061406C9
:10302000050608950C9401180E946A18D8F3E894D4
:10303000E0E0BB279F57F0F02AED3FE049EC06C0E7
:10304000EE0FBB0F661F771F881F28F0B23A62078A
:103050007307840728F0B25A620B730B840BE39555
:103060009A9572F7803830F49A95BB0F661F771FD8
:10307000881FD2F790480C940C19092E0394000C69
:1030800011F4882352F0BB0F40F4BF2B11F460FF02
:1030900004C06F5F7F4F8F4F9F4F0895EF93E0FF06
:1030A00007C0A2EA2AED3FE049EC5FEB0E949316CD
:1030B0000E943D180F90039401FC9058ECEAF0E058
:1030C0000C94181957FD9058440F551F59F05F3F45
:1030D00071F04795880F97FB991F61F09F3F79F03A
:1030E00087950895121613061406551FF2CF4695BC
:1030F000F1DF08C0161617061806991FF1CF86953E
:103100007105610508940895E894BB276627772721
:10311000CB0197F908950E94D71708F48FEF08950F
:103120000E94A3180C943D180E94041838F00E94C5
:103130000B1820F0952311F00C94FB170C94011838
:1031400011240C9485180E94621870F3959FC1F3A6
:10315000950F50E0551F629FF001729FBB27F00D45
:10316000B11D639FAA27F00DB11DAA1F649F66279A
:10317000B00DA11D661F829F2227B00DA11D621FE9
:10318000739FB00DA11D621F839FA00D611D221FA3
:10319000749F3327A00D611D231F849F600D211D87
:1031A000822F762F6A2F11249F5750409AF0F1F00A
:1031B00088234AF0EE0FFF1FBB1F661F771F881F73
:1031C00091505040A9F79E3F510580F00C94FB1799
:1031D0000C9485185F3FE4F3983ED4F38695779579
:1031E0006795B795F795E7959F5FC1F7FE2B880F19
:1031F000911D9695879597F908959F930E941418AD
:103200000F9007FCEE5F0C944E180E94D717880BA6
:10321000990B08959F3F31F0915020F48795779551
:103220006795B795880F911D9695879597F908959D
:103230009F938F937F936F93FF93EF939B01AC01C9
:103240000E949018EF91FF910E942C192F913F91AD
:103250004F915F910C949018DF93CF931F930F932E
:10326000FF92EF92DF927B018C01689406C0DA2E08
:10327000EF010E94A318FE01E894A59125913591D4
:1032800045915591A6F3EF010E949316FE01970117
:10329000A801DA9469F7DF90EF90FF900F911F91EA
:1032A000CF91DF91089581E090E0F8940C94581943
:0432B000F894FFCFC0
:1032B400FFFFFFFF00E10000000000005B025B0273
:1032C4005B025B025B020000B44400000C4258E95C
:1032D4005B4332000000003FCDCCCC3D0000000039
:1032E40000000000A0050000003F8C002300000047
:1032F400B44300C1808100000000000000C003212D
:10330400034E030C047F035D03710300000000B14E
:10331400042C04D704CC041D05DB04F904000000CC
:10332400008D0882089E0858027B08680859080026
:10333400000000040A000000005D066E616E006972
:0A3344006E66006F7666000D0A0049
:00000001FF
